{
  "contractName": "lottery",
  "abi": [
    {
      "inputs": [],
      "stateMutability": "nonpayable",
      "type": "constructor"
    },
    {
      "inputs": [],
      "name": "manager",
      "outputs": [
        {
          "internalType": "address",
          "name": "",
          "type": "address"
        }
      ],
      "stateMutability": "view",
      "type": "function",
      "constant": true
    },
    {
      "inputs": [
        {
          "internalType": "uint256",
          "name": "",
          "type": "uint256"
        }
      ],
      "name": "participants",
      "outputs": [
        {
          "internalType": "address payable",
          "name": "",
          "type": "address"
        }
      ],
      "stateMutability": "view",
      "type": "function",
      "constant": true
    },
    {
      "inputs": [],
      "name": "winner",
      "outputs": [
        {
          "internalType": "address payable",
          "name": "",
          "type": "address"
        }
      ],
      "stateMutability": "view",
      "type": "function",
      "constant": true
    },
    {
      "stateMutability": "payable",
      "type": "receive",
      "payable": true
    },
    {
      "inputs": [],
      "name": "getbal",
      "outputs": [
        {
          "internalType": "uint256",
          "name": "",
          "type": "uint256"
        }
      ],
      "stateMutability": "view",
      "type": "function",
      "constant": true
    },
    {
      "inputs": [],
      "name": "selectwinner",
      "outputs": [],
      "stateMutability": "payable",
      "type": "function",
      "payable": true
    },
    {
      "inputs": [],
      "name": "allMember",
      "outputs": [
        {
          "internalType": "address payable[]",
          "name": "",
          "type": "address[]"
        }
      ],
      "stateMutability": "view",
      "type": "function",
      "constant": true
    },
    {
      "inputs": [],
      "name": "transfer",
      "outputs": [],
      "stateMutability": "payable",
      "type": "function",
      "payable": true
    }
  ],
  "bytecode": "0x608060405234801561001057600080fd5b50336000806101000a81548173ffffffffffffffffffffffffffffffffffffffff021916908373ffffffffffffffffffffffffffffffffffffffff160217905550610bb7806100606000396000f3fe6080604052600436106100745760003560e01c80638a4068dd1161004e5780638a4068dd14610113578063c868b9dc1461011d578063dfbf53ae14610148578063f06e40ba146101735761007b565b80631b3f4e071461008057806335c1d349146100ab578063481c6a75146100e85761007b565b3661007b57005b600080fd5b34801561008c57600080fd5b5061009561017d565b6040516100a2919061071f565b60405180910390f35b3480156100b757600080fd5b506100d260048036038101906100cd919061076b565b610214565b6040516100df91906107d9565b60405180910390f35b3480156100f457600080fd5b506100fd610253565b60405161010a9190610815565b60405180910390f35b61011b610277565b005b34801561012957600080fd5b50610132610326565b60405161013f91906108ee565b60405180910390f35b34801561015457600080fd5b5061015d6103b4565b60405161016a91906107d9565b60405180910390f35b61017b6103da565b005b60008060009054906101000a900473ffffffffffffffffffffffffffffffffffffffff1673ffffffffffffffffffffffffffffffffffffffff163373ffffffffffffffffffffffffffffffffffffffff161461020e576040517f08c379a00000000000000000000000000000000000000000000000000000000081526004016102059061096d565b60405180910390fd5b47905090565b6001818154811061022457600080fd5b906000526020600020016000915054906101000a900473ffffffffffffffffffffffffffffffffffffffff1681565b60008054906101000a900473ffffffffffffffffffffffffffffffffffffffff1681565b670de0b6b3a764000034146102c1576040517f08c379a00000000000000000000000000000000000000000000000000000000081526004016102b8906109d9565b60405180910390fd5b6001339080600181540180825580915050600190039060005260206000200160009091909190916101000a81548173ffffffffffffffffffffffffffffffffffffffff021916908373ffffffffffffffffffffffffffffffffffffffff160217905550565b606060018054806020026020016040519081016040528092919081815260200182805480156103aa57602002820191906000526020600020905b8160009054906101000a900473ffffffffffffffffffffffffffffffffffffffff1673ffffffffffffffffffffffffffffffffffffffff1681526020019060010190808311610360575b5050505050905090565b600260009054906101000a900473ffffffffffffffffffffffffffffffffffffffff1681565b60008054906101000a900473ffffffffffffffffffffffffffffffffffffffff1673ffffffffffffffffffffffffffffffffffffffff163373ffffffffffffffffffffffffffffffffffffffff1614610468576040517f08c379a000000000000000000000000000000000000000000000000000000000815260040161045f9061096d565b60405180910390fd5b600360018054905010156104b1576040517f08c379a00000000000000000000000000000000000000000000000000000000081526004016104a890610a45565b60405180910390fd5b60006104bb610625565b90506000600180549050826104d09190610a94565b9050600181815481106104e6576104e5610ac5565b5b9060005260206000200160009054906101000a900473ffffffffffffffffffffffffffffffffffffffff16600260006101000a81548173ffffffffffffffffffffffffffffffffffffffff021916908373ffffffffffffffffffffffffffffffffffffffff160217905550600260009054906101000a900473ffffffffffffffffffffffffffffffffffffffff1673ffffffffffffffffffffffffffffffffffffffff166108fc61059561017d565b9081150290604051600060405180830381858888f193505050501580156105c0573d6000803e3d6000fd5b50600067ffffffffffffffff8111156105dc576105db610af4565b5b60405190808252806020026020018201604052801561060a5781602001602082028036833780820191505090505b506001908051906020019061062092919061065f565b505050565b6000444260018054905060405160200161064193929190610b44565b6040516020818303038152906040528051906020012060001c905090565b8280548282559060005260206000209081019282156106d8579160200282015b828111156106d75782518260006101000a81548173ffffffffffffffffffffffffffffffffffffffff021916908373ffffffffffffffffffffffffffffffffffffffff1602179055509160200191906001019061067f565b5b5090506106e591906106e9565b5090565b5b808211156107025760008160009055506001016106ea565b5090565b6000819050919050565b61071981610706565b82525050565b60006020820190506107346000830184610710565b92915050565b600080fd5b61074881610706565b811461075357600080fd5b50565b6000813590506107658161073f565b92915050565b6000602082840312156107815761078061073a565b5b600061078f84828501610756565b91505092915050565b600073ffffffffffffffffffffffffffffffffffffffff82169050919050565b60006107c382610798565b9050919050565b6107d3816107b8565b82525050565b60006020820190506107ee60008301846107ca565b92915050565b60006107ff82610798565b9050919050565b61080f816107f4565b82525050565b600060208201905061082a6000830184610806565b92915050565b600081519050919050565b600082825260208201905092915050565b6000819050602082019050919050565b610865816107b8565b82525050565b6000610877838361085c565b60208301905092915050565b6000602082019050919050565b600061089b82610830565b6108a5818561083b565b93506108b08361084c565b8060005b838110156108e15781516108c8888261086b565b97506108d383610883565b9250506001810190506108b4565b5085935050505092915050565b600060208201905081810360008301526109088184610890565b905092915050565b600082825260208201905092915050565b7f796f7520617265206e6f7420746865206d616e61676572000000000000000000600082015250565b6000610957601783610910565b915061096282610921565b602082019050919050565b600060208201905081810360008301526109868161094a565b9050919050565b7f6e6f7420656e6f75676820657468657200000000000000000000000000000000600082015250565b60006109c3601083610910565b91506109ce8261098d565b602082019050919050565b600060208201905081810360008301526109f2816109b6565b9050919050565b7f6e6f7420656e6f75676820706c61796572730000000000000000000000000000600082015250565b6000610a2f601283610910565b9150610a3a826109f9565b602082019050919050565b60006020820190508181036000830152610a5e81610a22565b9050919050565b7f4e487b7100000000000000000000000000000000000000000000000000000000600052601260045260246000fd5b6000610a9f82610706565b9150610aaa83610706565b925082610aba57610ab9610a65565b5b828206905092915050565b7f4e487b7100000000000000000000000000000000000000000000000000000000600052603260045260246000fd5b7f4e487b7100000000000000000000000000000000000000000000000000000000600052604160045260246000fd5b6000819050919050565b610b3e610b3982610706565b610b23565b82525050565b6000610b508286610b2d565b602082019150610b608285610b2d565b602082019150610b708284610b2d565b60208201915081905094935050505056fea2646970667358221220f46674e12f7b9d01ee94fd45e4bb65f9eccc382a9d4820f56f5a26c9527c570a64736f6c63430008090033",
  "immutableReferences": {},
  "source": "// SPDX-License-Identifier: UNLICENSED\r\npragma solidity ^0.8.9;\r\n\r\ncontract lottery{\r\n    address public manager;\r\n    address payable[] public participants;\r\n    address payable public winner;\r\n    constructor(){\r\n        manager=msg.sender;\r\n    }\r\n    receive() external payable {\r\n        \r\n\r\n     }\r\n     function getbal() public view returns(uint){\r\n        require(msg.sender==manager,\"you are not the manager\");\r\n        return address(this).balance;\r\n     }\r\n    function random() internal  view returns(uint){\r\n        return uint(keccak256(abi.encodePacked(block.difficulty,block.timestamp,participants.length)));\r\n     }\r\n     function selectwinner() public payable {\r\n        require(msg.sender==manager,\"you are not the manager\");\r\n        require(participants.length>=3,\"not enough players\");\r\n        uint r=random();\r\n        uint index=r%participants.length;\r\n        winner=participants[index];\r\n         winner.transfer(getbal());\r\n         participants=new address payable[](0);\r\n   \r\n     }\r\n     function allMember() public  view returns (address payable[] memory){\r\n            return participants;\r\n     }\r\n     function transfer() external payable {\r\n        require(msg.value ==1 ether,\"not enough ether\");\r\n        participants.push(payable (msg.sender));\r\n    }\r\n}",
  "sourcePath": "C:\\Users\\SAYANTIKA\\Desktop\\lotery\\contracts\\loterry.sol",
  "compiler": {
    "name": "solc",
    "version": "0.8.9+commit.e5eed63a.Emscripten.clang"
  },
  "schemaVersion": "3.4.16",
  "updatedAt": "2024-07-10T08:19:22.646Z",
  "networkType": "ethereum",
  "devdoc": {
    "kind": "dev",
    "methods": {},
    "version": 1
  },
  "userdoc": {
    "kind": "user",
    "methods": {},
    "version": 1
  }
}